:100000000C9463000C948B000C948B000C948B006C
:100010000C948B000C948B000C948B000C946C0251
:100020000C948B000C948B000C948B000C948B0024
:100030000C948B000C948B000C948B000C948B0014
:100040000C9417060C948B000C948B000C948B0072
:100050000C948B000C948B000C948B000C948B00F4
:100060000C9468040C948B0000000000240027000E
:100070002A0000000000250028002B0000000000DE
:1000800023002600290004040404040404040202DA
:100090000202020203030303030301020408102007
:1000A0004080010204081020010204081020000012
:1000B0000007000201000003040600000000000029
:1000C00000007D01A50311241FBECFEFD8E0DEBFE5
:1000D000CDBF11E0A0E0B1E0E8EDF1E102C0059094
:1000E0000D92A231B107D9F712E0A2E1B1E001C04F
:1000F0001D92AF38B107E1F710E0C6ECD0E004C0C4
:100100002297FE010E94E608C23CD107C9F70E946F
:1001100084070C94EA080C940000FC01662311F497
:1001200061E003C0643108F063E1618312821382ED
:1001300010820895DC0113969C911397E92FF0E04B
:100140003196EE0FFF1FEE0FFF1FEA0FFB1F4083DC
:100150005183628373839F5F13969C9313971196C9
:100160008C911197981718F013961C92139712966A
:100170009C91129711968C911197981720F49F5F7C
:1001800012969C9312971C920895BF92CF92DF9281
:10019000EF92FF920F931F93CF93DF93EC0140E018
:1001A0001BC0E42FF0E074969F01220F331F220F33
:1001B000331F2C0F3D1F7397EE0FFF1FEE0FFF1F16
:1001C000EC0FFD1F80819181A281B381F9018083B1
:1001D0009183A283B3834F5F8A81481710F3FF2472
:1001E0004EC0BF2CB3940F2D1B2D20C0A12FB0E00B
:1001F0005496AA0FBB1FAA0FBB1FAC0FBD1FE02F49
:10020000F0E07496EE0FFF1FEE0FFF1FEC0FFD1FC7
:100210006D917D918D919C9120813181428153819D
:100220000E94950788230CF4012F1F5F1E15F0F222
:100230000F1521F1E02FF0E07496EE0FFF1FEE0F87
:10024000FF1FEC0FFD1F4081518162817381960178
:100250002C5E3F4F220F331F220F331F2C0F3D1FE9
:10026000D901ED90FD900D911C91E082F182028305
:100270001383F9014083518362837383FB2CCF2C5A
:10028000DD24EA808E2D90E00197C816D9060CF483
:10029000A8CF81E08883DF91CF911F910F91FF90CC
:1002A000EF90DF90CF90BF900895CF93DF93EC0154
:1002B0008A81882329F470E060E090EC8FE714C015
:1002C0008881882319F4CE010E94C500EA81E69551
:1002D000F0E07496EE0FFF1FEE0FFF1FEC0FFD1FF7
:1002E0007081618192818381272F362F492F582F6A
:1002F000B901CA01DF91CF91089582E191E067E0F1
:1003000048E02FEF30E00E94220284E291E063E0B7
:100310000E948D000895CF93DF93C1E0D0E082E189
:1003200091E00E940A03A0E0B0E0BC01CD010E9470
:100330003208AB01BC0184E291E00E949A00C33014
:10034000D10551F064E170E080E090E00E949106F8
:100350002196C430D10519F784E291E00E9455013D
:1003600020E030E044E652E40E9499070E94010830
:100370009B016F3F710521F01CF02FEF30E004C0AE
:10038000672B11F421E030E030930101209300014C
:100390001092C001DF91CF9108958091C001882310
:1003A00011F00E948B010895CF93DF938FEF9FEFA1
:1003B00090930101809300018CE092E00E9443033E
:1003C000EC0104C08CE092E00E9443038CE092E0D8
:1003D0000E943A0318161906ACF3219719F481E02C
:1003E0008093C001DF91CF9108950F931F930CE08C
:1003F00012E0C80164E070E00E943C04C80164EDB2
:1004000071E00E949B03C8016BE072E00E94A003B0
:100410001F910F9108958091C001882391F46091FC
:100420000001709101018FEF6F3F780751F08FEF5E
:100430009FEF90930101809300018CE092E00E9475
:10044000ED030895CF93DF93EC01862F90E0FC013C
:10045000E656FF4FE491EC83A42FB0E0FD01E65691
:10046000FF4FE491ED838A579F4FFC01449150E088
:10047000440F551FFA01EE58FF4F859194919F83C9
:100480008E83AA57BF4FFD018491E82FF0E0EE0F55
:10049000FF1FE458FF4F859194919B878A87FA014B
:1004A000E859FF4F8591949199878887F1E0253F1E
:1004B0003F0714F024EF31E089E390E0AC01249F82
:1004C000C001259F900D349F900D11244C969D875F
:1004D0008C87DF91CF9108951F920F920FB60F92E4
:1004E00011242F933F934F935F936F937F938F9339
:1004F0009F93AF93BF93EF93FF93E091C101F0916E
:10050000C201309709F00995FF91EF91BF91AF912A
:100510009F918F917F916F915F914F913F912F911B
:100520000F900FBE0F901F901895CF93DF93EC01A3
:10053000E885F98580819C81892B8083EE81FF810C
:1005400090818C8180958923808384E090E00E9453
:10055000EA06EE81FF8180819C81892B80838AE07D
:1005600090E00E94EA06EE81FF8190818C81809567
:1005700089238083E885F98590818C818095892302
:1005800080830E946B06605B794B8F4F9F4F6E8715
:100590007F87888B998BEA85FB85208130E08D8170
:1005A00090E028233923232BC9F00E946B062E8567
:1005B0003F8548895989261737074807590770F03A
:1005C000EACF0E946B062E853F85488959892617F8
:1005D00037074807590710F480E019C0EA85FB8502
:1005E000208130E08D8190E028233923232B49F3AB
:1005F0000E946B062C853D8540E050E0260F371F9A
:10060000481F591F2E873F87488B598B81E0DF9108
:10061000CF910895CF93DF93EC010E949502882338
:1006200061F422C00E946B062E853F854889598956
:100630002617370748075907B8F0EA85FB85208158
:1006400030E08D8190E028233923232B59F70E9435
:100650006B064C855D85455050402E853F85421B7D
:10066000530B460F571F02C040E050E0CA01DF9114
:10067000CF9108952091E40130E08091E301281B9F
:100680003109C90108954091E3018091E4014817BF
:1006900018F02FEF3FEF0AC0E42FF0E0ED53FE4FCC
:1006A0008081282F30E04F5F4093E301C901089516
:1006B000E091E3018091E401E81718F0EFEFFFEF1C
:1006C00006C0F0E0ED53FE4F8081E82FF0E0CF014F
:1006D00008950895AC0120910A0230910B02211572
:1006E0003105E1F09091E3018091E4019817B0F0B9
:1006F00090E008C0FA01EA0FFB1F8081AD53BE4FA6
:100700008C939F5FA92FB0E0A617B7079CF31092B8
:10071000E3016093E401CB01F90109950895E091AB
:100720000802F0910902309729F010920502109208
:1007300006020995089570930B0260930A020895CA
:100740007093090260930802089510920F021092AC
:100750000E0288EE93E0A0E0B0E080931002909348
:100760001102A0931202B093130286E091E09093DD
:100770000D0280930C020895CF92DF92EF92FF92C8
:100780000F931F93CF93DF937C016B018A018091BC
:1007900007028823A1F0C0E0D0E00DC0D701ED91A1
:1007A000FC91D601AC0FBD1F0190F081E02DC70177
:1007B0006C9109952196C017D10780F304C0CB0135
:1007C000642F0E944304C801DF91CF911F910F91C4
:1007D000FF90EF90DF90CF900895DF93CF930F922B
:1007E000CDB7DEB7FC016983809107028823C9F089
:1007F00080910602803238F081E090E0938382831A
:1008000020E030E015C080910502E82FF0E0EB51C8
:10081000FE4F998190838F5F80930502809306023B
:1008200005C0CE01019661E00E94430421E030E062
:10083000C9010F90CF91DF9108951092E3011092BA
:10084000E40110920502109206020E94F905089533
:100850000F931F938C01862F0E943F048FE893E033
:100860000E9463048AE693E00E945E04C8010E942D
:100870001D041F910F9108950E9428040895880F68
:100880008093BA000895482F613210F081E00895F6
:1008900080911802843011F082E008956093630221
:1008A000A2E4B2E0842F9C01F90102C081918D93F2
:1008B0008E2F841B8617D0F380E0089590931F023B
:1008C00080931E02089590931D0280931C02089548
:1008D0001F920F920FB60F9211242F933F934F93B5
:1008E0005F936F937F938F939F93AF93BF93EF9398
:1008F000FF938091B90090E0887F907080369105D9
:1009000009F4F2C081369105CCF58832910509F4DD
:100910007BC089329105B4F48031910509F46FC030
:10092000813191053CF4009709F447C1089709F01B
:100930004FC165C08831910509F466C0809709F000
:1009400047C182C08034910509F4A4C08134910567
:1009500044F48033910509F482C0C89709F038C186
:1009600089C08035910509F489C08835910509F45D
:1009700096C08834910509F02BC1AEC08839910525
:1009800009F413C189399105ECF48837910509F40C
:10099000ABC0893791054CF48836910509F4A4C0A1
:1009A0008037910509F014C19FC08838910509F47A
:1009B000FCC08039910509F49DC08038910509F08B
:1009C00007C198C0803B910509F4C6C0813B9105E1
:1009D0004CF4803A910509F49FC0883A910509F0DA
:1009E000F7C0BAC0803C910509F4E3C0883C91058A
:1009F00009F4DFC0883B910509F0EAC0C2C08091CC
:100A000019028093BB00CFC09091400280914102B7
:100A1000981768F490914002E92FF0E0E05EFD4FF6
:100A200080818093BB009F5F90934002BCC0809107
:100A30001A02882309F44BC085ED8093BC00809195
:100A4000BC0084FDFCCFC2C080E28093850285EDAE
:100A50008093BC008091BC0084FDFCCFB7C080E3D4
:100A60008093850285ED8093BC008091BC0084FD5D
:100A7000FCCFACC088E3809385029BC0809140028C
:100A80009091BB00E82FF0E0E05EFD4F90838F5F18
:100A900080934002909140028091410282C08091F7
:100AA00040029091BB00E82FF0E0E05EFD4F9083A4
:100AB0008F5F8093400280911A02882341F085ED78
:100AC0008093BC008091BC0084FDFCCF7FC081E09E
:100AD00080931B0284EA6EC085ED8093BC008091F8
:100AE000BC0084FDFCCF72C083E08093180210929A
:100AF000840259C080918402803208F056C08091EF
:100B000084029091BB00E82FF0E0EC59FD4F9083F8
:100B10008F5F8093840247C080918402803230F4DA
:100B2000E0918402F0E0EC59FD4F108285ED809356
:100B3000BC008091BC0084FDFCCF10921802609133
:100B40008402E0911E02F0911F0284E692E070E0C0
:100B50000995109284022DC084E0809318021092AF
:100B6000620210926302E0911C02F0911D0209954D
:100B700080916302882329F481E0809363021092BC
:100B8000420290916202E92FF0E0EE5BFD4F80811E
:100B90008093BB009F5F909362029091620280916C
:100BA0006302981710F485EC01C085E88093BC00BF
:100BB0000FC085EC8093BC0009C01092850285EDC2
:100BC0008093BC008091BC0084FDFCCF1092180281
:100BD000FF91EF91BF91AF919F918F917F916F9115
:100BE0005F914F913F912F910F900FBE0F901F90EB
:100BF00018951092180281E080931A0210921B023D
:100C000082E161E00E942F0783E161E00E942F07EB
:100C1000E9EBF0E080818E7F808380818D7F80830F
:100C200080E28093B80085E48093BC0008951F9211
:100C30000F920FB60F9211242F933F934F935F9310
:100C40006F937F938F939F93AF93BF9320918A026B
:100C500030918B0240918C0250918D0270918E02E6
:100C6000DA01C9010296A11DB11D672F6A5F6D37B8
:100C700030F06D57DA01C9010396A11DB11D6093D3
:100C80008E0280938A0290938B02A0938C02B09381
:100C90008D028091860290918702A0918802B09186
:100CA00089020196A11DB11D80938602909387024F
:100CB000A0938802B0938902BF91AF919F918F91C9
:100CC0007F916F915F914F913F912F910F900FBE48
:100CD0000F901F9018959FB7F8942091860230913D
:100CE0008702409188025091890286B5A89B06C070
:100CF0008F3F21F02F5F3F4F4F4F5F4F9FBF542FCC
:100D0000432F322F2227280F311D411D511D83E013
:100D1000220F331F441F551F8A95D1F7B901CA010D
:100D200008959B01AC017FB7F89480918602909161
:100D30008702A0918802B091890266B5A89B05C080
:100D40006F3F19F00196A11DB11D7FBFBA2FA92FCA
:100D5000982F8827860F911DA11DB11D63E0880F74
:100D6000991FAA1FBB1F6A95D1F7BC012DC0FFB701
:100D7000F8948091860290918702A0918802B091A8
:100D80008902E6B5A89B05C0EF3F19F00196A11DA9
:100D9000B11DFFBFBA2FA92F982F88278E0F911D45
:100DA000A11DB11DE3E0880F991FAA1FBB1FEA9583
:100DB000D1F7861B970B885E9340C8F221503040D4
:100DC0004040504068517C4F211531054105510587
:100DD00071F60895019739F0019729F0880F991F4E
:100DE00001970197F1F70895789484B5826084BDE6
:100DF00084B5816084BD85B5826085BD85B581601F
:100E000085BDEEE6F0E0808181608083E1E8F0E07E
:100E10001082808182608083808181608083E0E8AD
:100E2000F0E0808181608083E1EBF0E0808184608C
:100E30008083E0EBF0E0808181608083EAE7F0E08E
:100E400080818460808380818260808380818160F2
:100E500080838081806880831092C1000895482F2C
:100E600050E0CA0182559F4FFC012491CA01865669
:100E70009F4FFC0194914A575F4FFA0134913323FD
:100E800009F440C0222351F1233071F0243028F4BA
:100E90002130A1F0223011F514C02630B1F02730F6
:100EA000C1F02430D9F404C0809180008F7703C052
:100EB000809180008F7D8093800010C084B58F77F3
:100EC00002C084B58F7D84BD09C08091B0008F774A
:100ED00003C08091B0008F7D8093B000E32FF0E0DD
:100EE000EE0FFF1FEE58FF4FA591B4912FB7F89466
:100EF000662321F48C919095892302C08C91892BD3
:100F00008C932FBF08950895CF93DF930E94F4062A
:100F10000E9483070E94F501C0E0D0E00E94CD014D
:100F20002097E1F30E940000F9CFD9D008F481E0C6
:100F300008950CD00FC107D140F0FED030F021F45D
:100F40005F3F19F0F0C0511139C1F3C014D198F3CB
:100F50009923C9F35523B1F3951B550BBB27AA273A
:100F600062177307840738F09F5F5F4F220F331FAC
:100F7000441FAA1FA9F333D00E2E3AF0E0E830D078
:100F800091505040E695001CCAF729D0FE2F27D07B
:100F9000660F771F881FBB1F261737074807AB0749
:100FA000B0E809F0BB0B802DBF01FF2793585F4FBE
:100FB0002AF09E3F510568F0B6C000C15F3FECF3D8
:100FC000983EDCF3869577956795B795F7959F5F83
:100FD000C9F7880F911D9695879597F90895E1E0D7
:100FE000660F771F881FBB1F621773078407BA0736
:100FF00020F0621B730B840BBA0BEE1F88F7E09591
:10100000089504D06894B111D9C00895BCD088F077
:101010009F5790F0B92F9927B751A0F0D1F0660FE4
:10102000771F881F991F1AF0BA95C9F712C0B130FF
:1010300081F0C3D0B1E00895C0C0672F782F882712
:10104000B85F39F0B93FCCF3869577956795B3953E
:10105000D9F73EF490958095709561957F4F8F4FAD
:101060009F4F0895E89409C097FB3EF490958095B2
:10107000709561957F4F8F4F9F4F9923A9F0F92F5E
:1010800096E9BB279395F695879577956795B795DC
:10109000F111F8CFFAF4BB0F11F460FF1BC06F5FC2
:1010A0007F4F8F4F9F4F16C0882311F096E911C0D4
:1010B000772321F09EE8872F762F05C0662371F0F5
:1010C00096E8862F70E060E02AF09A95660F771F09
:1010D000881FDAF7880F9695879597F90895990FE5
:1010E0000008550FAA0BE0E8FEEF16161706E807F2
:1010F000F907C0F012161306E407F50798F0621B13
:10110000730B840B950B39F40A2661F0232B242BE7
:10111000252B21F408950A2609F4A140A6958FEF06
:10112000811D811D089597F99F6780E870E060E058
:1011300008959FEF80EC089500240A941616170670
:1011400018060906089500240A94121613061406B8
:1011500005060895092E0394000C11F4882352F01B
:10116000BB0F40F4BF2B11F460FF04C06F5F7F4FD3
:101170008F4F9F4F089557FD9058440F551F59F0BA
:101180005F3F71F04795880F97FB991F61F09F3F74
:1011900079F087950895121613061406551FF2CF9D
:1011A0004695F1DF08C0161617061806991FF1CFED
:1011B00086957105610508940895E894BB27662714
:1011C0007727CB0197F90895EE0FFF1F0590F49153
:0811D000E02D0994F894FFCF13
:1011D800FFFF00000000ED03BC033A03430358037C
:0211E800690399
:00000001FF
